:100000000C9437000C94B7000C94B7000C949D002E
:100010000C94B7000C94B7000C94B7000C94B70084
:100020000C94B7000C94B7000C94B7000C94B70074
:100030000C94B7000C94B7000C94B7000C94B70064
:100040000C94B7000C94B7000C94B7000C94B70054
:100050000C94B7000C94B7000C94B7000C94B70044
:100060000C94B7000C94B70001000101800011242A
:100070001FBECFEFD8E0DEBFCDBFE8E6F0E040E046
:1000800017C0B591A59135912591059107FD0CC03B
:1000900095918591EF01F92FE82F05900D92A21708
:1000A000B307D9F7FE0104C01D92A217B307E1F709
:1000B000ED36F40731F70E9461000C94AC00F8941F
:0200C000FFCF70
:1000C200E8E6F0E0808181608083EBE6F0E0808109
:1000D2008160808384B1826084B9789480910001C8
:1000E2008130E1F785B1826085B92FEF89E698E129
:1000F200215080409040E1F700C0000085B18D7F23
:1001020085B92FEF89E698E1215080409040E1F7D0
:1001120000C0000085B1826085B92FEF89E698E1C1
:10012200215080409040E1F700C0000085B18D7FF2
:0801320085B910920001D2CF43
:10013A001F920F920FB60F9211248F9381E0809332
:0E014A0000018F910F900FBE0F901F9018951F
:10015800EC010E94BC000E94BB00CE010E94BD00C1
:06016800CE010E94B90067
:04016E000C940000ED
:040172000E945F0088
:020176000895EA
:020178000895E8
:02017A000895E6
:00000001FF
